{
  "contractName": "Balance",
  "abi": [
    {
      "anonymous": false,
      "inputs": [
        {
          "indexed": true,
          "internalType": "address",
          "name": "owner",
          "type": "address"
        },
        {
          "indexed": true,
          "internalType": "address",
          "name": "spender",
          "type": "address"
        },
        {
          "indexed": false,
          "internalType": "uint256",
          "name": "value",
          "type": "uint256"
        }
      ],
      "name": "Approval",
      "type": "event"
    },
    {
      "anonymous": false,
      "inputs": [
        {
          "indexed": true,
          "internalType": "address",
          "name": "from",
          "type": "address"
        },
        {
          "indexed": true,
          "internalType": "address",
          "name": "to",
          "type": "address"
        },
        {
          "indexed": false,
          "internalType": "uint256",
          "name": "value",
          "type": "uint256"
        }
      ],
      "name": "Transfer",
      "type": "event"
    },
    {
      "inputs": [],
      "name": "decimals",
      "outputs": [
        {
          "internalType": "uint8",
          "name": "",
          "type": "uint8"
        }
      ],
      "stateMutability": "view",
      "type": "function"
    },
    {
      "inputs": [],
      "name": "name",
      "outputs": [
        {
          "internalType": "string",
          "name": "",
          "type": "string"
        }
      ],
      "stateMutability": "view",
      "type": "function"
    },
    {
      "inputs": [],
      "name": "symbol",
      "outputs": [
        {
          "internalType": "string",
          "name": "",
          "type": "string"
        }
      ],
      "stateMutability": "view",
      "type": "function"
    },
    {
      "inputs": [
        {
          "internalType": "uint256",
          "name": "_totalSupply",
          "type": "uint256"
        }
      ],
      "name": "setTotalSupply",
      "outputs": [],
      "stateMutability": "nonpayable",
      "type": "function"
    },
    {
      "inputs": [
        {
          "internalType": "address",
          "name": "_address",
          "type": "address"
        },
        {
          "internalType": "uint256",
          "name": "balance",
          "type": "uint256"
        }
      ],
      "name": "setBalance",
      "outputs": [],
      "stateMutability": "nonpayable",
      "type": "function"
    },
    {
      "inputs": [],
      "name": "totalSupply",
      "outputs": [
        {
          "internalType": "uint256",
          "name": "",
          "type": "uint256"
        }
      ],
      "stateMutability": "view",
      "type": "function"
    },
    {
      "inputs": [
        {
          "internalType": "address",
          "name": "tokenOwner",
          "type": "address"
        }
      ],
      "name": "balanceOf",
      "outputs": [
        {
          "internalType": "uint256",
          "name": "",
          "type": "uint256"
        }
      ],
      "stateMutability": "view",
      "type": "function"
    },
    {
      "inputs": [
        {
          "internalType": "address",
          "name": "receiver",
          "type": "address"
        },
        {
          "internalType": "uint256",
          "name": "numTokens",
          "type": "uint256"
        }
      ],
      "name": "transfer",
      "outputs": [
        {
          "internalType": "bool",
          "name": "",
          "type": "bool"
        }
      ],
      "stateMutability": "nonpayable",
      "type": "function"
    },
    {
      "inputs": [
        {
          "internalType": "address",
          "name": "delegate",
          "type": "address"
        },
        {
          "internalType": "uint256",
          "name": "numTokens",
          "type": "uint256"
        }
      ],
      "name": "approve",
      "outputs": [
        {
          "internalType": "bool",
          "name": "",
          "type": "bool"
        }
      ],
      "stateMutability": "nonpayable",
      "type": "function"
    },
    {
      "inputs": [
        {
          "internalType": "address",
          "name": "owner",
          "type": "address"
        },
        {
          "internalType": "address",
          "name": "delegate",
          "type": "address"
        }
      ],
      "name": "allowance",
      "outputs": [
        {
          "internalType": "uint256",
          "name": "",
          "type": "uint256"
        }
      ],
      "stateMutability": "view",
      "type": "function"
    },
    {
      "inputs": [
        {
          "internalType": "address",
          "name": "owner",
          "type": "address"
        },
        {
          "internalType": "address",
          "name": "buyer",
          "type": "address"
        },
        {
          "internalType": "uint256",
          "name": "numTokens",
          "type": "uint256"
        }
      ],
      "name": "transferFrom",
      "outputs": [
        {
          "internalType": "bool",
          "name": "",
          "type": "bool"
        }
      ],
      "stateMutability": "nonpayable",
      "type": "function"
    }
  ],
  "bytecode": "0x6080604052600060025534801561001557600080fd5b50610e79806100256000396000f3fe608060405234801561001057600080fd5b50600436106100a95760003560e01c806370a082311161007157806370a082311461016857806395d89b4114610198578063a9059cbb146101b6578063dd62ed3e146101e6578063e30443bc14610216578063f7ea7a3d14610232576100a9565b806306fdde03146100ae578063095ea7b3146100cc57806318160ddd146100fc57806323b872dd1461011a578063313ce5671461014a575b600080fd5b6100b661024e565b6040516100c39190610b0b565b60405180910390f35b6100e660048036038101906100e19190610bc6565b610287565b6040516100f39190610c21565b60405180910390f35b610104610379565b6040516101119190610c4b565b60405180910390f35b610134600480360381019061012f9190610c66565b610383565b6040516101419190610c21565b60405180910390f35b6101526106e9565b60405161015f9190610cd5565b60405180910390f35b610182600480360381019061017d9190610cf0565b6106ee565b60405161018f9190610c4b565b60405180910390f35b6101a0610736565b6040516101ad9190610b0b565b60405180910390f35b6101d060048036038101906101cb9190610bc6565b61076f565b6040516101dd9190610c21565b60405180910390f35b61020060048036038101906101fb9190610d1d565b610943565b60405161020d9190610c4b565b60405180910390f35b610230600480360381019061022b9190610bc6565b6109ca565b005b61024c60048036038101906102479190610d5d565b610a23565b005b6040518060400160405280600781526020017f42414c414e43450000000000000000000000000000000000000000000000000081525081565b600081600160003373ffffffffffffffffffffffffffffffffffffffff1673ffffffffffffffffffffffffffffffffffffffff16815260200190815260200160002060008573ffffffffffffffffffffffffffffffffffffffff1673ffffffffffffffffffffffffffffffffffffffff168152602001908152602001600020819055508273ffffffffffffffffffffffffffffffffffffffff163373ffffffffffffffffffffffffffffffffffffffff167f8c5be1e5ebec7d5bd14f71427d1e84f3dd0314c0f7b2291e5b200ac8c7c3b925846040516103679190610c4b565b60405180910390a36001905092915050565b6000600254905090565b60008060008573ffffffffffffffffffffffffffffffffffffffff1673ffffffffffffffffffffffffffffffffffffffff168152602001908152602001600020548211156103d057600080fd5b600160008573ffffffffffffffffffffffffffffffffffffffff1673ffffffffffffffffffffffffffffffffffffffff16815260200190815260200160002060003373ffffffffffffffffffffffffffffffffffffffff1673ffffffffffffffffffffffffffffffffffffffff1681526020019081526020016000205482111561045957600080fd5b816000808673ffffffffffffffffffffffffffffffffffffffff1673ffffffffffffffffffffffffffffffffffffffff168152602001908152602001600020546104a39190610db9565b6000808673ffffffffffffffffffffffffffffffffffffffff1673ffffffffffffffffffffffffffffffffffffffff1681526020019081526020016000208190555081600160008673ffffffffffffffffffffffffffffffffffffffff1673ffffffffffffffffffffffffffffffffffffffff16815260200190815260200160002060003373ffffffffffffffffffffffffffffffffffffffff1673ffffffffffffffffffffffffffffffffffffffff1681526020019081526020016000205461056d9190610db9565b600160008673ffffffffffffffffffffffffffffffffffffffff1673ffffffffffffffffffffffffffffffffffffffff16815260200190815260200160002060003373ffffffffffffffffffffffffffffffffffffffff1673ffffffffffffffffffffffffffffffffffffffff16815260200190815260200160002081905550816000808573ffffffffffffffffffffffffffffffffffffffff1673ffffffffffffffffffffffffffffffffffffffff168152602001908152602001600020546106379190610ded565b6000808573ffffffffffffffffffffffffffffffffffffffff1673ffffffffffffffffffffffffffffffffffffffff168152602001908152602001600020819055508273ffffffffffffffffffffffffffffffffffffffff168473ffffffffffffffffffffffffffffffffffffffff167fddf252ad1be2c89b69c2b068fc378daa952ba7f163c4a11628f55a4df523b3ef846040516106d69190610c4b565b60405180910390a3600190509392505050565b601281565b60008060008373ffffffffffffffffffffffffffffffffffffffff1673ffffffffffffffffffffffffffffffffffffffff168152602001908152602001600020549050919050565b6040518060400160405280600381526020017f504b52000000000000000000000000000000000000000000000000000000000081525081565b60008060003373ffffffffffffffffffffffffffffffffffffffff1673ffffffffffffffffffffffffffffffffffffffff168152602001908152602001600020548211156107bc57600080fd5b816000803373ffffffffffffffffffffffffffffffffffffffff1673ffffffffffffffffffffffffffffffffffffffff168152602001908152602001600020546108069190610db9565b6000803373ffffffffffffffffffffffffffffffffffffffff1673ffffffffffffffffffffffffffffffffffffffff16815260200190815260200160002081905550816000808573ffffffffffffffffffffffffffffffffffffffff1673ffffffffffffffffffffffffffffffffffffffff168152602001908152602001600020546108929190610ded565b6000808573ffffffffffffffffffffffffffffffffffffffff1673ffffffffffffffffffffffffffffffffffffffff168152602001908152602001600020819055508273ffffffffffffffffffffffffffffffffffffffff163373ffffffffffffffffffffffffffffffffffffffff167fddf252ad1be2c89b69c2b068fc378daa952ba7f163c4a11628f55a4df523b3ef846040516109319190610c4b565b60405180910390a36001905092915050565b6000600160008473ffffffffffffffffffffffffffffffffffffffff1673ffffffffffffffffffffffffffffffffffffffff16815260200190815260200160002060008373ffffffffffffffffffffffffffffffffffffffff1673ffffffffffffffffffffffffffffffffffffffff16815260200190815260200160002054905092915050565b806000808473ffffffffffffffffffffffffffffffffffffffff1673ffffffffffffffffffffffffffffffffffffffff1681526020019081526020016000206000828254610a189190610ded565b925050819055505050565b806002819055506002546000803373ffffffffffffffffffffffffffffffffffffffff1673ffffffffffffffffffffffffffffffffffffffff1681526020019081526020016000208190555050565b600081519050919050565b600082825260208201905092915050565b60005b83811015610aac578082015181840152602081019050610a91565b83811115610abb576000848401525b50505050565b6000601f19601f8301169050919050565b6000610add82610a72565b610ae78185610a7d565b9350610af7818560208601610a8e565b610b0081610ac1565b840191505092915050565b60006020820190508181036000830152610b258184610ad2565b905092915050565b600080fd5b600073ffffffffffffffffffffffffffffffffffffffff82169050919050565b6000610b5d82610b32565b9050919050565b610b6d81610b52565b8114610b7857600080fd5b50565b600081359050610b8a81610b64565b92915050565b6000819050919050565b610ba381610b90565b8114610bae57600080fd5b50565b600081359050610bc081610b9a565b92915050565b60008060408385031215610bdd57610bdc610b2d565b5b6000610beb85828601610b7b565b9250506020610bfc85828601610bb1565b9150509250929050565b60008115159050919050565b610c1b81610c06565b82525050565b6000602082019050610c366000830184610c12565b92915050565b610c4581610b90565b82525050565b6000602082019050610c606000830184610c3c565b92915050565b600080600060608486031215610c7f57610c7e610b2d565b5b6000610c8d86828701610b7b565b9350506020610c9e86828701610b7b565b9250506040610caf86828701610bb1565b9150509250925092565b600060ff82169050919050565b610ccf81610cb9565b82525050565b6000602082019050610cea6000830184610cc6565b92915050565b600060208284031215610d0657610d05610b2d565b5b6000610d1484828501610b7b565b91505092915050565b60008060408385031215610d3457610d33610b2d565b5b6000610d4285828601610b7b565b9250506020610d5385828601610b7b565b9150509250929050565b600060208284031215610d7357610d72610b2d565b5b6000610d8184828501610bb1565b91505092915050565b7f4e487b7100000000000000000000000000000000000000000000000000000000600052601160045260246000fd5b6000610dc482610b90565b9150610dcf83610b90565b925082821015610de257610de1610d8a565b5b828203905092915050565b6000610df882610b90565b9150610e0383610b90565b9250827fffffffffffffffffffffffffffffffffffffffffffffffffffffffffffffffff03821115610e3857610e37610d8a565b5b82820190509291505056fea26469706673582212208e910c5cf706ac10dcb3af43836adecf416bcf7c93d9247cb1903ae0496acf2564736f6c634300080f0033",
  "immutableReferences": {},
  "source": "// SPDX-License-Identifier: GPL-3.0\r\n\r\npragma solidity >=0.7.0 <0.9.0;\r\n\r\ninterface IERC20 {\r\n    function totalSupply() external view returns (uint256);\r\n\r\n    function balanceOf(address account) external view returns (uint256);\r\n\r\n    function allowance(address owner, address spender)\r\n        external\r\n        view\r\n        returns (uint256);\r\n\r\n    function transfer(address recipient, uint256 amount)\r\n        external\r\n        returns (bool);\r\n\r\n    function approve(address spender, uint256 amount) external returns (bool);\r\n\r\n    function transferFrom(\r\n        address sender,\r\n        address recipient,\r\n        uint256 amount\r\n    ) external returns (bool);\r\n\r\n    event Transfer(address indexed from, address indexed to, uint256 value);\r\n    event Approval(\r\n        address indexed owner,\r\n        address indexed spender,\r\n        uint256 value\r\n    );\r\n}\r\n\r\ncontract Balance is IERC20 {\r\n    string public constant name = \"BALANCE\";\r\n    string public constant symbol = \"PKR\";\r\n    uint8 public constant decimals = 18;\r\n\r\n    mapping(address => uint256) balances;\r\n\r\n    mapping(address => mapping(address => uint256)) allowed;\r\n\r\n    uint totalSupply_ = 0;\r\n\r\n    function setTotalSupply(uint _totalSupply) public {\r\n        totalSupply_ = _totalSupply;\r\n        balances[msg.sender] = totalSupply_;\r\n    }\r\n\r\n    function setBalance(address _address, uint256 balance) public {\r\n        balances[_address] += balance;\r\n    }\r\n\r\n    function totalSupply() public view override returns (uint) {\r\n        return uint(totalSupply_);\r\n    }\r\n\r\n    function balanceOf(address tokenOwner)\r\n        public\r\n        view\r\n        override\r\n        returns (uint256)\r\n    {\r\n        return balances[tokenOwner];\r\n    }\r\n\r\n    function transfer(address receiver, uint256 numTokens)\r\n        public\r\n        override\r\n        returns (bool)\r\n    {\r\n        require(numTokens <= balances[msg.sender]);\r\n        balances[msg.sender] = balances[msg.sender] - numTokens;\r\n        balances[receiver] = balances[receiver] + numTokens;\r\n        emit Transfer(msg.sender, receiver, numTokens);\r\n        return true;\r\n    }\r\n\r\n    function approve(address delegate, uint256 numTokens)\r\n        public\r\n        override\r\n        returns (bool)\r\n    {\r\n        allowed[msg.sender][delegate] = numTokens;\r\n        emit Approval(msg.sender, delegate, numTokens);\r\n        return true;\r\n    }\r\n\r\n    function allowance(address owner, address delegate)\r\n        public\r\n        view\r\n        override\r\n        returns (uint)\r\n    {\r\n        return allowed[owner][delegate];\r\n    }\r\n\r\n    function transferFrom(\r\n        address owner,\r\n        address buyer,\r\n        uint256 numTokens\r\n    ) public override returns (bool) {\r\n        require(numTokens <= balances[owner]);\r\n        require(numTokens <= allowed[owner][msg.sender]);\r\n\r\n        balances[owner] = balances[owner] - numTokens;\r\n        allowed[owner][msg.sender] = allowed[owner][msg.sender] - numTokens;\r\n        balances[buyer] = balances[buyer] + numTokens;\r\n        emit Transfer(owner, buyer, numTokens);\r\n        return true;\r\n    }\r\n}\r\n",
  "sourcePath": "C:\\Users\\kille\\OneDrive\\Desktop\\Web Dev\\BlockifyFull\\api\\smartcontracts\\contracts\\Balance.sol",
  "compiler": {
    "name": "solc",
    "version": "0.8.15+commit.e14f2714.Emscripten.clang"
  },
  "schemaVersion": "3.4.9",
  "updatedAt": "2022-09-14T21:57:57.417Z",
  "devdoc": {
    "kind": "dev",
    "methods": {},
    "version": 1
  },
  "userdoc": {
    "kind": "user",
    "methods": {},
    "version": 1
  }
}