{
  "contractName": "Counter",
  "abi": [
    {
      "inputs": [
        {
          "internalType": "uint256",
          "name": "_n",
          "type": "uint256"
        }
      ],
      "stateMutability": "payable",
      "type": "constructor"
    },
    {
      "anonymous": false,
      "inputs": [
        {
          "indexed": false,
          "internalType": "uint256",
          "name": "_n",
          "type": "uint256"
        }
      ],
      "name": "Inc",
      "type": "event"
    },
    {
      "inputs": [
        {
          "internalType": "uint256",
          "name": "_value",
          "type": "uint256"
        }
      ],
      "name": "initialize",
      "outputs": [],
      "stateMutability": "nonpayable",
      "type": "function"
    },
    {
      "inputs": [
        {
          "internalType": "uint256",
          "name": "_n",
          "type": "uint256"
        }
      ],
      "name": "increment",
      "outputs": [],
      "stateMutability": "payable",
      "type": "function"
    },
    {
      "inputs": [
        {
          "internalType": "uint256",
          "name": "_n",
          "type": "uint256"
        }
      ],
      "name": "decrement",
      "outputs": [],
      "stateMutability": "nonpayable",
      "type": "function"
    },
    {
      "inputs": [],
      "name": "get",
      "outputs": [
        {
          "internalType": "uint256",
          "name": "",
          "type": "uint256"
        }
      ],
      "stateMutability": "view",
      "type": "function"
    },
    {
      "inputs": [],
      "name": "getAddress",
      "outputs": [
        {
          "internalType": "address",
          "name": "",
          "type": "address"
        }
      ],
      "stateMutability": "view",
      "type": "function"
    },
    {
      "inputs": [],
      "name": "getBalance",
      "outputs": [
        {
          "internalType": "uint256",
          "name": "",
          "type": "uint256"
        }
      ],
      "stateMutability": "view",
      "type": "function"
    }
  ],
  "bytecode": "0x60806040526040516104573803806104578339818101604052810190610025919061006d565b806000819055505061009a565b600080fd5b6000819050919050565b61004a81610037565b811461005557600080fd5b50565b60008151905061006781610041565b92915050565b60006020828403121561008357610082610032565b5b600061009184828501610058565b91505092915050565b6103ae806100a96000396000f3fe6080604052600436106100555760003560e01c806312065fe01461005a57806338cc4831146100855780633a9ebefd146100b05780636d4ce63c146100d95780637cf5dab014610104578063fe4b84df14610120575b600080fd5b34801561006657600080fd5b5061006f610149565b60405161007c91906101ea565b60405180910390f35b34801561009157600080fd5b5061009a610151565b6040516100a79190610246565b60405180910390f35b3480156100bc57600080fd5b506100d760048036038101906100d29190610292565b610159565b005b3480156100e557600080fd5b506100ee610170565b6040516100fb91906101ea565b60405180910390f35b61011e60048036038101906101199190610292565b610179565b005b34801561012c57600080fd5b5061014760048036038101906101429190610292565b6101c7565b005b600047905090565b600030905090565b8060005461016791906102ee565b60008190555050565b60008054905090565b806000546101879190610322565b6000819055507f3443590b7333fb7cfd5e65585c8a4c4100c345929865db522919623bf37e5808816040516101bc91906101ea565b60405180910390a150565b8060008190555050565b6000819050919050565b6101e4816101d1565b82525050565b60006020820190506101ff60008301846101db565b92915050565b600073ffffffffffffffffffffffffffffffffffffffff82169050919050565b600061023082610205565b9050919050565b61024081610225565b82525050565b600060208201905061025b6000830184610237565b92915050565b600080fd5b61026f816101d1565b811461027a57600080fd5b50565b60008135905061028c81610266565b92915050565b6000602082840312156102a8576102a7610261565b5b60006102b68482850161027d565b91505092915050565b7f4e487b7100000000000000000000000000000000000000000000000000000000600052601160045260246000fd5b60006102f9826101d1565b9150610304836101d1565b925082821015610317576103166102bf565b5b828203905092915050565b600061032d826101d1565b9150610338836101d1565b9250827fffffffffffffffffffffffffffffffffffffffffffffffffffffffffffffffff0382111561036d5761036c6102bf565b5b82820190509291505056fea264697066735822122062c06ca77a5a95350e971c8b1dbc843fff6dcc7c2042d24c13e52e7a5a7e255164736f6c634300080f0033",
  "immutableReferences": {},
  "source": "// SPDX-License-Identifier: GPL-3.0\r\n\r\npragma solidity >=0.7.0 <0.9.0;\r\n\r\ncontract Counter {\r\n    uint value;\r\n    constructor (uint _n) payable{\r\n        value = _n;\r\n    }\r\n    \r\n    event Inc(uint _n);\r\n\r\n    function initialize(uint _value) public {\r\n        value = _value;\r\n    }\r\n    function increment(uint _n) payable public {\r\n        value = value + _n;\r\n        emit Inc(_n);\r\n    }\r\n    function decrement(uint _n) public {\r\n        value = value - _n;\r\n    }\r\n    function get() view public returns (uint){\r\n        return value;\r\n    }\r\n    function getAddress() view public returns (address) {\r\n        return address(this);\r\n    }\r\n    function getBalance() view public returns (uint) {\r\n        return address(this).balance;\r\n    }\r\n    \r\n}",
  "sourcePath": "C:\\Users\\qures\\Desktop\\DamnIt\\backend\\smartcontracts\\contracts\\Counter.sol",
  "compiler": {
    "name": "solc",
    "version": "0.8.15+commit.e14f2714.Emscripten.clang"
  },
  "schemaVersion": "3.4.8",
  "updatedAt": "2022-08-20T13:37:40.031Z",
  "devdoc": {
    "kind": "dev",
    "methods": {},
    "version": 1
  },
  "userdoc": {
    "kind": "user",
    "methods": {},
    "version": 1
  }
}