{
  "contractName": "Products",
  "abi": [
    {
      "anonymous": false,
      "inputs": [
        {
          "indexed": true,
          "internalType": "address",
          "name": "owner",
          "type": "address"
        },
        {
          "indexed": true,
          "internalType": "address",
          "name": "spender",
          "type": "address"
        },
        {
          "indexed": false,
          "internalType": "uint256",
          "name": "value",
          "type": "uint256"
        }
      ],
      "name": "Approval",
      "type": "event"
    },
    {
      "anonymous": false,
      "inputs": [
        {
          "indexed": true,
          "internalType": "address",
          "name": "from",
          "type": "address"
        },
        {
          "indexed": true,
          "internalType": "address",
          "name": "to",
          "type": "address"
        },
        {
          "indexed": false,
          "internalType": "uint256",
          "name": "value",
          "type": "uint256"
        }
      ],
      "name": "Transfer",
      "type": "event"
    },
    {
      "inputs": [],
      "name": "decimals",
      "outputs": [
        {
          "internalType": "uint8",
          "name": "",
          "type": "uint8"
        }
      ],
      "stateMutability": "view",
      "type": "function"
    },
    {
      "inputs": [],
      "name": "name",
      "outputs": [
        {
          "internalType": "string",
          "name": "",
          "type": "string"
        }
      ],
      "stateMutability": "view",
      "type": "function"
    },
    {
      "inputs": [],
      "name": "symbol",
      "outputs": [
        {
          "internalType": "string",
          "name": "",
          "type": "string"
        }
      ],
      "stateMutability": "view",
      "type": "function"
    },
    {
      "inputs": [
        {
          "internalType": "uint256",
          "name": "_totalSupply",
          "type": "uint256"
        }
      ],
      "name": "setTotalSupply",
      "outputs": [],
      "stateMutability": "nonpayable",
      "type": "function"
    },
    {
      "inputs": [],
      "name": "totalSupply",
      "outputs": [
        {
          "internalType": "uint256",
          "name": "",
          "type": "uint256"
        }
      ],
      "stateMutability": "view",
      "type": "function"
    },
    {
      "inputs": [
        {
          "internalType": "address",
          "name": "tokenOwner",
          "type": "address"
        }
      ],
      "name": "balanceOf",
      "outputs": [
        {
          "internalType": "uint256",
          "name": "",
          "type": "uint256"
        }
      ],
      "stateMutability": "view",
      "type": "function"
    },
    {
      "inputs": [
        {
          "internalType": "address",
          "name": "receiver",
          "type": "address"
        },
        {
          "internalType": "uint256",
          "name": "numTokens",
          "type": "uint256"
        }
      ],
      "name": "transfer",
      "outputs": [
        {
          "internalType": "bool",
          "name": "",
          "type": "bool"
        }
      ],
      "stateMutability": "nonpayable",
      "type": "function"
    },
    {
      "inputs": [
        {
          "internalType": "address",
          "name": "delegate",
          "type": "address"
        },
        {
          "internalType": "uint256",
          "name": "numTokens",
          "type": "uint256"
        }
      ],
      "name": "approve",
      "outputs": [
        {
          "internalType": "bool",
          "name": "",
          "type": "bool"
        }
      ],
      "stateMutability": "nonpayable",
      "type": "function"
    },
    {
      "inputs": [
        {
          "internalType": "address",
          "name": "owner",
          "type": "address"
        },
        {
          "internalType": "address",
          "name": "delegate",
          "type": "address"
        }
      ],
      "name": "allowance",
      "outputs": [
        {
          "internalType": "uint256",
          "name": "",
          "type": "uint256"
        }
      ],
      "stateMutability": "view",
      "type": "function"
    },
    {
      "inputs": [
        {
          "internalType": "address",
          "name": "owner",
          "type": "address"
        },
        {
          "internalType": "address",
          "name": "buyer",
          "type": "address"
        },
        {
          "internalType": "uint256",
          "name": "numTokens",
          "type": "uint256"
        }
      ],
      "name": "transferFrom",
      "outputs": [
        {
          "internalType": "bool",
          "name": "",
          "type": "bool"
        }
      ],
      "stateMutability": "nonpayable",
      "type": "function"
    }
  ],
  "bytecode": "0x6080604052600060025534801561001557600080fd5b50610df9806100256000396000f3fe608060405234801561001057600080fd5b506004361061009e5760003560e01c806370a082311161006657806370a082311461015d57806395d89b411461018d578063a9059cbb146101ab578063dd62ed3e146101db578063f7ea7a3d1461020b5761009e565b806306fdde03146100a3578063095ea7b3146100c157806318160ddd146100f157806323b872dd1461010f578063313ce5671461013f575b600080fd5b6100ab610227565b6040516100b89190610a8b565b60405180910390f35b6100db60048036038101906100d69190610b46565b610260565b6040516100e89190610ba1565b60405180910390f35b6100f9610352565b6040516101069190610bcb565b60405180910390f35b61012960048036038101906101249190610be6565b61035c565b6040516101369190610ba1565b60405180910390f35b6101476106c2565b6040516101549190610c55565b60405180910390f35b61017760048036038101906101729190610c70565b6106c7565b6040516101849190610bcb565b60405180910390f35b61019561070f565b6040516101a29190610a8b565b60405180910390f35b6101c560048036038101906101c09190610b46565b610748565b6040516101d29190610ba1565b60405180910390f35b6101f560048036038101906101f09190610c9d565b61091c565b6040516102029190610bcb565b60405180910390f35b61022560048036038101906102209190610cdd565b6109a3565b005b6040518060400160405280600881526020017f50524f445543545300000000000000000000000000000000000000000000000081525081565b600081600160003373ffffffffffffffffffffffffffffffffffffffff1673ffffffffffffffffffffffffffffffffffffffff16815260200190815260200160002060008573ffffffffffffffffffffffffffffffffffffffff1673ffffffffffffffffffffffffffffffffffffffff168152602001908152602001600020819055508273ffffffffffffffffffffffffffffffffffffffff163373ffffffffffffffffffffffffffffffffffffffff167f8c5be1e5ebec7d5bd14f71427d1e84f3dd0314c0f7b2291e5b200ac8c7c3b925846040516103409190610bcb565b60405180910390a36001905092915050565b6000600254905090565b60008060008573ffffffffffffffffffffffffffffffffffffffff1673ffffffffffffffffffffffffffffffffffffffff168152602001908152602001600020548211156103a957600080fd5b600160008573ffffffffffffffffffffffffffffffffffffffff1673ffffffffffffffffffffffffffffffffffffffff16815260200190815260200160002060003373ffffffffffffffffffffffffffffffffffffffff1673ffffffffffffffffffffffffffffffffffffffff1681526020019081526020016000205482111561043257600080fd5b816000808673ffffffffffffffffffffffffffffffffffffffff1673ffffffffffffffffffffffffffffffffffffffff1681526020019081526020016000205461047c9190610d39565b6000808673ffffffffffffffffffffffffffffffffffffffff1673ffffffffffffffffffffffffffffffffffffffff1681526020019081526020016000208190555081600160008673ffffffffffffffffffffffffffffffffffffffff1673ffffffffffffffffffffffffffffffffffffffff16815260200190815260200160002060003373ffffffffffffffffffffffffffffffffffffffff1673ffffffffffffffffffffffffffffffffffffffff168152602001908152602001600020546105469190610d39565b600160008673ffffffffffffffffffffffffffffffffffffffff1673ffffffffffffffffffffffffffffffffffffffff16815260200190815260200160002060003373ffffffffffffffffffffffffffffffffffffffff1673ffffffffffffffffffffffffffffffffffffffff16815260200190815260200160002081905550816000808573ffffffffffffffffffffffffffffffffffffffff1673ffffffffffffffffffffffffffffffffffffffff168152602001908152602001600020546106109190610d6d565b6000808573ffffffffffffffffffffffffffffffffffffffff1673ffffffffffffffffffffffffffffffffffffffff168152602001908152602001600020819055508273ffffffffffffffffffffffffffffffffffffffff168473ffffffffffffffffffffffffffffffffffffffff167fddf252ad1be2c89b69c2b068fc378daa952ba7f163c4a11628f55a4df523b3ef846040516106af9190610bcb565b60405180910390a3600190509392505050565b601281565b60008060008373ffffffffffffffffffffffffffffffffffffffff1673ffffffffffffffffffffffffffffffffffffffff168152602001908152602001600020549050919050565b6040518060400160405280600381526020017f505244000000000000000000000000000000000000000000000000000000000081525081565b60008060003373ffffffffffffffffffffffffffffffffffffffff1673ffffffffffffffffffffffffffffffffffffffff1681526020019081526020016000205482111561079557600080fd5b816000803373ffffffffffffffffffffffffffffffffffffffff1673ffffffffffffffffffffffffffffffffffffffff168152602001908152602001600020546107df9190610d39565b6000803373ffffffffffffffffffffffffffffffffffffffff1673ffffffffffffffffffffffffffffffffffffffff16815260200190815260200160002081905550816000808573ffffffffffffffffffffffffffffffffffffffff1673ffffffffffffffffffffffffffffffffffffffff1681526020019081526020016000205461086b9190610d6d565b6000808573ffffffffffffffffffffffffffffffffffffffff1673ffffffffffffffffffffffffffffffffffffffff168152602001908152602001600020819055508273ffffffffffffffffffffffffffffffffffffffff163373ffffffffffffffffffffffffffffffffffffffff167fddf252ad1be2c89b69c2b068fc378daa952ba7f163c4a11628f55a4df523b3ef8460405161090a9190610bcb565b60405180910390a36001905092915050565b6000600160008473ffffffffffffffffffffffffffffffffffffffff1673ffffffffffffffffffffffffffffffffffffffff16815260200190815260200160002060008373ffffffffffffffffffffffffffffffffffffffff1673ffffffffffffffffffffffffffffffffffffffff16815260200190815260200160002054905092915050565b806002819055506002546000803373ffffffffffffffffffffffffffffffffffffffff1673ffffffffffffffffffffffffffffffffffffffff1681526020019081526020016000208190555050565b600081519050919050565b600082825260208201905092915050565b60005b83811015610a2c578082015181840152602081019050610a11565b83811115610a3b576000848401525b50505050565b6000601f19601f8301169050919050565b6000610a5d826109f2565b610a6781856109fd565b9350610a77818560208601610a0e565b610a8081610a41565b840191505092915050565b60006020820190508181036000830152610aa58184610a52565b905092915050565b600080fd5b600073ffffffffffffffffffffffffffffffffffffffff82169050919050565b6000610add82610ab2565b9050919050565b610aed81610ad2565b8114610af857600080fd5b50565b600081359050610b0a81610ae4565b92915050565b6000819050919050565b610b2381610b10565b8114610b2e57600080fd5b50565b600081359050610b4081610b1a565b92915050565b60008060408385031215610b5d57610b5c610aad565b5b6000610b6b85828601610afb565b9250506020610b7c85828601610b31565b9150509250929050565b60008115159050919050565b610b9b81610b86565b82525050565b6000602082019050610bb66000830184610b92565b92915050565b610bc581610b10565b82525050565b6000602082019050610be06000830184610bbc565b92915050565b600080600060608486031215610bff57610bfe610aad565b5b6000610c0d86828701610afb565b9350506020610c1e86828701610afb565b9250506040610c2f86828701610b31565b9150509250925092565b600060ff82169050919050565b610c4f81610c39565b82525050565b6000602082019050610c6a6000830184610c46565b92915050565b600060208284031215610c8657610c85610aad565b5b6000610c9484828501610afb565b91505092915050565b60008060408385031215610cb457610cb3610aad565b5b6000610cc285828601610afb565b9250506020610cd385828601610afb565b9150509250929050565b600060208284031215610cf357610cf2610aad565b5b6000610d0184828501610b31565b91505092915050565b7f4e487b7100000000000000000000000000000000000000000000000000000000600052601160045260246000fd5b6000610d4482610b10565b9150610d4f83610b10565b925082821015610d6257610d61610d0a565b5b828203905092915050565b6000610d7882610b10565b9150610d8383610b10565b9250827fffffffffffffffffffffffffffffffffffffffffffffffffffffffffffffffff03821115610db857610db7610d0a565b5b82820190509291505056fea264697066735822122042cbc2c761c0432b99f8ba173ddafd98ebfaa39052625808c09b09fb7ac6c98564736f6c634300080f0033",
  "immutableReferences": {},
  "source": "// SPDX-License-Identifier: GPL-3.0\r\n\r\npragma solidity >=0.7.0 <0.9.0;\r\n\r\ninterface IERC20 {\r\n    function totalSupply() external view returns (uint256);\r\n\r\n    function balanceOf(address account) external view returns (uint256);\r\n\r\n    function allowance(address owner, address spender)\r\n        external\r\n        view\r\n        returns (uint256);\r\n\r\n    function transfer(address recipient, uint256 amount)\r\n        external\r\n        returns (bool);\r\n\r\n    function approve(address spender, uint256 amount) external returns (bool);\r\n\r\n    function transferFrom(\r\n        address sender,\r\n        address recipient,\r\n        uint256 amount\r\n    ) external returns (bool);\r\n\r\n    event Transfer(address indexed from, address indexed to, uint256 value);\r\n    event Approval(\r\n        address indexed owner,\r\n        address indexed spender,\r\n        uint256 value\r\n    );\r\n}\r\n\r\ncontract Products is IERC20 {\r\n    string public constant name = \"PRODUCTS\";\r\n    string public constant symbol = \"PRD\";\r\n    uint8 public constant decimals = 18;\r\n\r\n    mapping(address => uint256) balances;\r\n\r\n    mapping(address => mapping(address => uint256)) allowed;\r\n\r\n    uint totalSupply_ = 0;\r\n\r\n    function setTotalSupply(uint _totalSupply) public {\r\n        totalSupply_ = _totalSupply;\r\n        balances[msg.sender] = totalSupply_;\r\n    }\r\n\r\n    function totalSupply() public view override returns (uint) {\r\n        return uint(totalSupply_);\r\n    }\r\n\r\n    function balanceOf(address tokenOwner)\r\n        public\r\n        view\r\n        override\r\n        returns (uint256)\r\n    {\r\n        return balances[tokenOwner];\r\n    }\r\n\r\n    function transfer(address receiver, uint256 numTokens)\r\n        public\r\n        override\r\n        returns (bool)\r\n    {\r\n        require(numTokens <= balances[msg.sender]);\r\n        balances[msg.sender] = balances[msg.sender] - numTokens;\r\n        balances[receiver] = balances[receiver] + numTokens;\r\n        emit Transfer(msg.sender, receiver, numTokens);\r\n        return true;\r\n    }\r\n\r\n    function approve(address delegate, uint256 numTokens)\r\n        public\r\n        override\r\n        returns (bool)\r\n    {\r\n        allowed[msg.sender][delegate] = numTokens;\r\n        emit Approval(msg.sender, delegate, numTokens);\r\n        return true;\r\n    }\r\n\r\n    function allowance(address owner, address delegate)\r\n        public\r\n        view\r\n        override\r\n        returns (uint)\r\n    {\r\n        return allowed[owner][delegate];\r\n    }\r\n\r\n    function transferFrom(\r\n        address owner,\r\n        address buyer,\r\n        uint256 numTokens\r\n    ) public override returns (bool) {\r\n        require(numTokens <= balances[owner]);\r\n        require(numTokens <= allowed[owner][msg.sender]);\r\n\r\n        balances[owner] = balances[owner] - numTokens;\r\n        allowed[owner][msg.sender] = allowed[owner][msg.sender] - numTokens;\r\n        balances[buyer] = balances[buyer] + numTokens;\r\n        emit Transfer(owner, buyer, numTokens);\r\n        return true;\r\n    }\r\n}\r\n",
  "sourcePath": "C:\\Users\\qures\\Desktop\\Final\\MoazzamU\\BlockifyFullApp\\api\\smartcontracts\\contracts\\Products.sol",
  "compiler": {
    "name": "solc",
    "version": "0.8.15+commit.e14f2714.Emscripten.clang"
  },
  "schemaVersion": "3.4.10",
  "updatedAt": "2022-12-07T20:29:43.947Z",
  "devdoc": {
    "kind": "dev",
    "methods": {},
    "version": 1
  },
  "userdoc": {
    "kind": "user",
    "methods": {},
    "version": 1
  }
}