{
  "contractName": "SellerAuthentication",
  "abi": [
    {
      "inputs": [],
      "stateMutability": "nonpayable",
      "type": "constructor"
    },
    {
      "anonymous": false,
      "inputs": [
        {
          "indexed": true,
          "internalType": "address",
          "name": "_from",
          "type": "address"
        },
        {
          "indexed": true,
          "internalType": "address",
          "name": "_address",
          "type": "address"
        }
      ],
      "name": "Authenticated",
      "type": "event"
    },
    {
      "anonymous": false,
      "inputs": [
        {
          "indexed": true,
          "internalType": "address",
          "name": "_from",
          "type": "address"
        },
        {
          "indexed": true,
          "internalType": "address",
          "name": "_address",
          "type": "address"
        }
      ],
      "name": "Removed",
      "type": "event"
    },
    {
      "inputs": [],
      "name": "get_authenticated_sellers",
      "outputs": [
        {
          "internalType": "address[]",
          "name": "",
          "type": "address[]"
        }
      ],
      "stateMutability": "view",
      "type": "function"
    },
    {
      "inputs": [
        {
          "internalType": "address",
          "name": "_address",
          "type": "address"
        }
      ],
      "name": "authenticate_seller",
      "outputs": [],
      "stateMutability": "nonpayable",
      "type": "function"
    },
    {
      "inputs": [
        {
          "internalType": "address",
          "name": "_address",
          "type": "address"
        }
      ],
      "name": "remove_seller",
      "outputs": [],
      "stateMutability": "nonpayable",
      "type": "function"
    },
    {
      "inputs": [
        {
          "internalType": "address",
          "name": "_address",
          "type": "address"
        }
      ],
      "name": "verify_seller",
      "outputs": [
        {
          "internalType": "bool",
          "name": "",
          "type": "bool"
        }
      ],
      "stateMutability": "view",
      "type": "function"
    }
  ],
  "bytecode": "0x608060405234801561001057600080fd5b5033600360006101000a81548173ffffffffffffffffffffffffffffffffffffffff021916908373ffffffffffffffffffffffffffffffffffffffff1602179055506000600281905550610aa6806100696000396000f3fe608060405234801561001057600080fd5b506004361061004c5760003560e01c80634b991f091461005157806366acd9e31461006f57806383aef5c41461008b578063f242a586146100bb575b600080fd5b6100596100d7565b604051610066919061085c565b60405180910390f35b610089600480360381019061008491906108af565b61022b565b005b6100a560048036038101906100a091906108af565b610511565b6040516100b291906108f7565b60405180910390f35b6100d560048036038101906100d091906108af565b610574565b005b6060600360009054906101000a900473ffffffffffffffffffffffffffffffffffffffff1673ffffffffffffffffffffffffffffffffffffffff163373ffffffffffffffffffffffffffffffffffffffff161461013357600080fd5b600060025467ffffffffffffffff81111561015157610150610912565b5b60405190808252806020026020018201604052801561017f5781602001602082028036833780820191505090505b50905060005b600254811015610223576001600082815260200190815260200160002060009054906101000a900473ffffffffffffffffffffffffffffffffffffffff168282815181106101d6576101d5610941565b5b602002602001019073ffffffffffffffffffffffffffffffffffffffff16908173ffffffffffffffffffffffffffffffffffffffff1681525050808061021b906109a9565b915050610185565b508091505090565b600360009054906101000a900473ffffffffffffffffffffffffffffffffffffffff1673ffffffffffffffffffffffffffffffffffffffff163373ffffffffffffffffffffffffffffffffffffffff161461028557600080fd5b600115156000808373ffffffffffffffffffffffffffffffffffffffff1673ffffffffffffffffffffffffffffffffffffffff16815260200190815260200160002060009054906101000a900460ff161515146102e157600080fd5b60008060008373ffffffffffffffffffffffffffffffffffffffff1673ffffffffffffffffffffffffffffffffffffffff16815260200190815260200160002060006101000a81548160ff0219169083151502179055506000805b6002548110156103c3578273ffffffffffffffffffffffffffffffffffffffff166001600083815260200190815260200160002060009054906101000a900473ffffffffffffffffffffffffffffffffffffffff1673ffffffffffffffffffffffffffffffffffffffff16036103b0578091505b80806103bb906109a9565b91505061033c565b5060008190505b60025481101561047857600160006001836103e591906109f1565b815260200190815260200160002060009054906101000a900473ffffffffffffffffffffffffffffffffffffffff166001600083815260200190815260200160002060006101000a81548173ffffffffffffffffffffffffffffffffffffffff021916908373ffffffffffffffffffffffffffffffffffffffff1602179055508080610470906109a9565b9150506103ca565b506002600081548092919061048c90610a47565b91905055508173ffffffffffffffffffffffffffffffffffffffff16600360009054906101000a900473ffffffffffffffffffffffffffffffffffffffff1673ffffffffffffffffffffffffffffffffffffffff167f40e634d0e26d9ec2e860e4dd9b7b2cfbb569b6058362a1a54d3a94718bc4958760405160405180910390a35050565b60008060008373ffffffffffffffffffffffffffffffffffffffff1673ffffffffffffffffffffffffffffffffffffffff16815260200190815260200160002060009054906101000a900460ff1661056a57600061056d565b60015b9050919050565b600360009054906101000a900473ffffffffffffffffffffffffffffffffffffffff1673ffffffffffffffffffffffffffffffffffffffff163373ffffffffffffffffffffffffffffffffffffffff16146105ce57600080fd5b600015156000808373ffffffffffffffffffffffffffffffffffffffff1673ffffffffffffffffffffffffffffffffffffffff16815260200190815260200160002060009054906101000a900460ff1615151461062a57600080fd5b60016000808373ffffffffffffffffffffffffffffffffffffffff1673ffffffffffffffffffffffffffffffffffffffff16815260200190815260200160002060006101000a81548160ff0219169083151502179055508060016000600254815260200190815260200160002060006101000a81548173ffffffffffffffffffffffffffffffffffffffff021916908373ffffffffffffffffffffffffffffffffffffffff160217905550600260008154809291906106e8906109a9565b91905055508073ffffffffffffffffffffffffffffffffffffffff16600360009054906101000a900473ffffffffffffffffffffffffffffffffffffffff1673ffffffffffffffffffffffffffffffffffffffff167fd42c368decf104a7572c7884ea7028fe04ef7d3e76dbd706484f9175d6c4ec6260405160405180910390a350565b600081519050919050565b600082825260208201905092915050565b6000819050602082019050919050565b600073ffffffffffffffffffffffffffffffffffffffff82169050919050565b60006107c382610798565b9050919050565b6107d3816107b8565b82525050565b60006107e583836107ca565b60208301905092915050565b6000602082019050919050565b60006108098261076c565b6108138185610777565b935061081e83610788565b8060005b8381101561084f57815161083688826107d9565b9750610841836107f1565b925050600181019050610822565b5085935050505092915050565b6000602082019050818103600083015261087681846107fe565b905092915050565b600080fd5b61088c816107b8565b811461089757600080fd5b50565b6000813590506108a981610883565b92915050565b6000602082840312156108c5576108c461087e565b5b60006108d38482850161089a565b91505092915050565b60008115159050919050565b6108f1816108dc565b82525050565b600060208201905061090c60008301846108e8565b92915050565b7f4e487b7100000000000000000000000000000000000000000000000000000000600052604160045260246000fd5b7f4e487b7100000000000000000000000000000000000000000000000000000000600052603260045260246000fd5b7f4e487b7100000000000000000000000000000000000000000000000000000000600052601160045260246000fd5b6000819050919050565b60006109b48261099f565b91507fffffffffffffffffffffffffffffffffffffffffffffffffffffffffffffffff82036109e6576109e5610970565b5b600182019050919050565b60006109fc8261099f565b9150610a078361099f565b9250827fffffffffffffffffffffffffffffffffffffffffffffffffffffffffffffffff03821115610a3c57610a3b610970565b5b828201905092915050565b6000610a528261099f565b915060008203610a6557610a64610970565b5b60018203905091905056fea264697066735822122006b9ec11520342877f8c49f6e673926ffd6f6c2e84cdd4bb7d20d45ac7d8f95564736f6c634300080f0033",
  "immutableReferences": {},
  "source": "// SPDX-License-Identifier: GPL-3.0\r\n\r\npragma solidity >=0.7.0 <0.9.0;\r\n\r\ncontract SellerAuthentication {\r\n\r\n    // Mapping to keep track of authenticated sellers\r\n    mapping (address => bool) authenticated_sellers;\r\n    mapping (uint => address) authenticated_seller_addresses;\r\n    uint authenticated_seller_count;\r\n    address owner;\r\n\r\n    event Authenticated (address indexed _from, address indexed _address);\r\n    event Removed(address indexed _from, address indexed _address);\r\n\r\n\r\n    constructor(){\r\n        owner =  msg.sender;\r\n        authenticated_seller_count = 0;\r\n    }\r\n\r\n    modifier onlyOwner{\r\n        require(msg.sender == owner);\r\n        _;\r\n    }\r\n\r\n    function get_authenticated_sellers() public onlyOwner view returns(address[] memory){\r\n        address[] memory ret = new address[](authenticated_seller_count);\r\n        for(uint i = 0 ; i<authenticated_seller_count ; i++){\r\n            ret[i] = authenticated_seller_addresses[i];\r\n        } \r\n        return ret;\r\n    }\r\n\r\n    function authenticate_seller(address _address) public onlyOwner{\r\n        require(authenticated_sellers[_address] == false);\r\n        authenticated_sellers[_address] = true;\r\n        authenticated_seller_addresses[authenticated_seller_count] = _address;\r\n        authenticated_seller_count++;\r\n        emit Authenticated(owner,_address);\r\n    }\r\n\r\n    function remove_seller(address _address) public onlyOwner{\r\n        require(authenticated_sellers[_address] == true);\r\n        authenticated_sellers[_address] = false;\r\n        uint index = 0;\r\n        // Find index of item to delete\r\n        for (uint i = 0 ; i<authenticated_seller_count ; i++){\r\n            if(authenticated_seller_addresses[i] == _address){\r\n                index = i;\r\n            }\r\n        }\r\n        // Shift the array items\r\n        for(uint i = index ; i<authenticated_seller_count ; i++){\r\n            authenticated_seller_addresses[i] = authenticated_seller_addresses[i+1];\r\n        }\r\n        // Update the count\r\n        authenticated_seller_count--;\r\n        emit Removed(owner,_address);\r\n    }\r\n\r\n    function verify_seller(address _address) public view returns(bool){\r\n        return authenticated_sellers[_address] ? true : false;\r\n    }\r\n}",
  "sourcePath": "C:\\Users\\qures\\Desktop\\Final\\BlockifyFullApp\\api\\smartcontracts\\contracts\\SellerAuthentication.sol",
  "compiler": {
    "name": "solc",
    "version": "0.8.15+commit.e14f2714.Emscripten.clang"
  },
  "schemaVersion": "3.4.10",
  "updatedAt": "2022-11-19T16:51:14.329Z",
  "devdoc": {
    "kind": "dev",
    "methods": {},
    "version": 1
  },
  "userdoc": {
    "kind": "user",
    "methods": {},
    "version": 1
  }
}